:040000000C948116C5
:1000040007060000000305000302020000040600C6
:1000140002050000000406000204000000040700BA
:10002400060600000303050004020200040406009F
:10003400020500000004060002040000000407009A
:100044000606000000030500030202000304060084
:10005400020500000004060002040000000407007A
:100064000606000000030500040202000504060061
:10007400020500000004060002040000000407005A
:10008400000600000303030002000200040404004D
:10009400020600000404040002050200000500003A
:1000A4000206020003030300020202000404040027
:1000B4000205000004040400020402000404040015
:1000C4000206000003030500020202000404060005
:1000D40002050000000406000204000000040700FA
:1000E40002060000030305000202020004040600E5
:1000F40002050000000406000204000000040700DA
:10010400EC0237010C000C000C003101F1010C0071
:10011400DC003001F9010C000C003401F4010C0086
:100124008B0238010C000C000C003201F2010C00AF
:100134001C0336010C000C000C003501F5010C0009
:10014400C40227010C000C005101210111020C0012
:10015400FC00200119020C005401240114020C00BB
:100164006B0228010C000C000C00220112020C008E
:100174005C0326010C000C000C00250115020C0088
:10018400FC0247010C000C000C00410101020C00B0
:10019400CC00400109020C00B402440104020C002A
:1001A4009B0248010C000C000C00420102020C00EE
:1001B4003C0346010C000C000C00450105020C0038
:1001C400DC0207010C000C000C00010121020C00F0
:1001D400EC00000129020C00BA02040124020C0004
:1001E400AB0208010C000C000C00020122020C00FE
:1001F4007C0306010C000C000C00050125020C0018
:100204000C0037000C000C005100310041000C00C0
:10021400EC010C007C000C005400340044000C0081
:100224003B0238000C000C005200320043000C006A
:100234009C003600BC000C000C0035000C000C00C7
:100244002000070010000C002100010011000C0028
:100254008C0000006C000C002400040014000C004E
:100264004B0208000C000C002200020013000C00DA
:100274004C030600AC000C002500050016000C0021
:10028400800167010C000C0081016101A1010C00D7
:10029400CC016001DC010C0084016401A4010C00A8
:1002A4007B0268010C000C000C006201A2010C002E
:1002B4002C0366010C000C000C006501A5010C0068
:1002C400700117010C000C007101110191010C0067
:1002D400BC0110010C030C007401140194010C0006
:1002E4005B0218010C000C000C00120192010C00BE
:1002F4006C0316010C000C000C00150195010C0098
:10030400A9E58510A9E28511206DE08519086885A5
:100314001FBA861E8A851B98851CA9FC8510A9E234
:100324008511206DE0202EE0200CE14C0BE0A000B4
:10033400AD00202901F0F9AD0120C90DF015C90A5D
:10034400F011C92090EA990002205CE0C8C04090F6
:10035400DFA90DA9009900022060E0608D012060F2
:1003640048A90D205CE0A90A205CE06860A000B107
:1003740010F007205CE0C84C6FE060484A4A4A4AE3
:100384002086E068290FC90AB0061869304C93E04A
:10039400186937205CE060C9309014C93A9012C9DA
:1003A40041900CC947900EC9619004C967900A181E
:1003B4006038E9306038E9376038E95760A900856A
:1003C400128513B900022097E0901806122613062E
:1003D400122613061226130612261305128512C8B6
:1003E4004CC3E060A000B1108516C900F00BB90041
:1003F40002C516D013C84CE6E0B90002C900F00AE1
:10040400C920F006C90DF00218603860A9028510F1
:10041400A9E3851120E4E090034C8BE1A907851042
:10042400A9E3851120E4E090034C11E2A90C8510A6
:10043400A9E3851120E4E090034C77E2A91185102B
:10044400A9E3851120E4E090034CABE2A9168510E2
:10045400A9E3851120E4E090034C97E1A91B8510E2
:10046400A9E3851120E4E090034CFFE1A91F851066
:10047400A9E3851120E4E090034C0EE2A925851040
:10048400A9E38511206DE02060E060A9298510A909
:10049400E38511206DE060A96C8510A9E385112026
:1004A4006DE0A519207BE0A920205CE0A96F8510F0
:1004B400A9E38511206DE0A51B207BE0A920205C29
:1004C400E0A9728510A9E38511206DE0A51C207BAD
:1004D400E0A920205CE0A9758510A9E38511206DB1
:1004E400E0A51E207BE0A920205CE0A9798510A965
:1004F400E38511206DE0A51F207BE02060E060A96A
:10050400598510A9E38511206DE02060E0604C005E
:10051400E0A000B90002C900F05CC920F004C84C96
:1005240013E2C820BDE0A5128514A5138515B900F2
:1005340002C900F041C920F004C84C2EE2C820BD15
:10054400E0A515C5139008D02DA514C512B027A594
:1005540015207BE0A514207BE0A93A205CE0A920CB
:10056400205CE0A000B114207BE02060E0E614D021
:10057400D0E6154C41E260A000B90002C900F02A9F
:10058400C920F004C84C79E2C820BDE0A513207B43
:10059400E0A512207BE0A93A205CE0A920205CE0E1
:1005A400A000B112207BE02060E060A000B900024E
:1005B400C900F030C920F004C84CADE2C820BDE049
:1005C400A512850CA513850DB90002C900F015C943
:1005D40020F004C84CC8E2C820BDE0A512A00091D8
:1005E4000C2060E060536167654170706C65204D5C
:1005F4006F6E69746F72000D0A0D0A004D4F4E3E06
:10060400200068656C700064756D70007065656BC2
:1006140000706F6B6500726567730072756E0072AF
:1006240065736574003F0D0A00436F6D6D616E6400
:10063400733A2068656C702064756D702070656510
:100644006B20706F6B6520726567732072756E2006
:100654007265736574000D0A006E6F2075736572A0
:100664002070726F6772616D000D0A00413D005881
:100674003D00593D0053503D00503D000000000036
:100684000000000000000000000000000000000066
:100694000000000000000000000000000000000056
:1006A4000000000000000000000000000000000046
:1006B4000000000000000000000000000000000036
:1022F40000000000000000000000000000E00000FA
:1023040011241FBECFEFD8E0DEBFCDBF25E0A0E093
:10231400B1E001C01D92AF30B207E1F70C94A716EB
:1023240080910B018F5F80930B0190E091600C947E
:102334002C16682F90910B01892F90E091600E94D8
:10234400501680910B01815080930B010895CF9317
:10235400C82F892F0E949B118C2FCF910C949B1115
:102364000F931F93CF938C018091090190910A01DF
:102374000E94A9118091080180630E949B118091A1
:102384000801846080930801C8010E942C16C82F9C
:10239400C80101960E942C16982F8C2F90930A0145
:1023A400809309018091030190910401A09105019A
:1023B400B09106010796A11DB11D8093030190936E
:1023C4000401A0930501B0930601CF911F910F91D1
:1023D40008959091080187FF03C090689D7F04C011
:1023E4009F778111FBCF9260909308010895CF935A
:1023F400DF939091080120910E01392F3170C32F82
:1024040030E0D32FC20FD11DC80FD11D2C278C272C
:102414002823C11581E0D80770F0916027FF0DC013
:102424009064909308018C2F0E94EB11C0930E01CD
:10243400DF91CF9108959E7FF1CF9F7BF2CFCF9311
:10244400DF9390910801809520910E01392F31700E
:10245400C32F30E0D32FC20FD11DC80FD11D2C279D
:102464008C272823C11581E0D80770F49E7F27FFAD
:102474000DC09064909308018C2F0E94EB11C093BF
:102484000E01DF91CF9108959160F1CF9F7BF2CF40
:102494000F931F93CF93DF93142FD52F022F8132E5
:1024A40089F1B8F48F3121F1C62FC6953091080116
:1024B4008032D1F0C0E08C2F0E94EB11011551F154
:1024C4006C2F812F9D2FDF91CF911F910F910C9431
:1024D4005016823279F730910801C62FC695832FA2
:1024E400879588278795C82B60FD08C03E7F07C065
:1024F400C62FCC0F3091080167FFF8CF31603093BD
:102504000801D9CF30910801832F8170C62FCC0FD9
:10251400C82BF2CFC0930E01DF91CF911F910F9181
:102524000895CF93DF93D82FC62F861B0E94EB11FB
:1025340080910801DC1730F0816080930801DF91FD
:10254400CF9108958E7FF9CFCF938DEF80930B01B8
:102554008CEF9FEF0E942C16C82F8DEF9FEF0E94E7
:102564002C16982F8C2F90930A018093090184E1F3
:102574008093080110920E0110920D0110920C012B
:1025840010920701109203011092040110920501A8
:10259400109206011092020110920101CF91089548
:1025A4008F929F92BF92CF92DF92EF92FF920F93FE
:1025B4001F93CF93DF9300910701011114C38091FE
:1025C400090190910A010E942C16282F30E0F9018C
:1025D400EC5FFF4FE491CE2ED12CE12CF12C8091B5
:1025E400090190910A01019690930A0180930901CF
:1025F400F901EE0FFF1FEC5FFE4F25913591A90104
:1026040034E0569547953A95E1F7142F1F732F70D0
:10261400211137C00E942C162091090130910A0122
:102624002F5F3F4F30930A0120930901193108F0BD
:102634008EC0E12FF0E0EF51F94E0C94A1160E94E8
:10264400F91185C00E94211282C090910E01892344
:1026540080930E017AC090910E01892BF9CF90914D
:102664000E018927F5CF682F80910E010E949312E5
:102674006EC0682F80910D01F9CF682F80910C01F5
:10268400F5CF293049F420E040E050E060910E019C
:10269400812F0E944A125BC02B3009F046C00E9471
:1026A4002C162091090130910A012F5F3F4F30937E
:1026B4000A01209309011352183008F048C0E12F91
:1026C400F0E0E650F94E909108010C94A116909513
:1026D40091709115E1F1A901480F511D87FD5A959B
:1026E400CA0150930A01409309018227932702E00B
:1026F4008115914060F501E02AC096959170E9CF6B
:1027040097FB992790F9E5CF969593959170E1CF32
:102714009038990B9195DDCF002496FF0394902D6A
:10272400D8CF96FB992790F9D4CF2C3009F0C9C0A3
:102734001650123360F4E12FF0E0EE5FF84E0C9483
:10274400A11680910E0180930D010E94EB118091DE
:10275400030190910401A0910501B09106018C0D33
:102764009D1DAE1DBF1D6C017D01C00ED11CE11C61
:10277400F11CC0920301D0920401E0920501F09291
:10278400060180910101811509F420C21092010112
:102794008AEF9FEFDF91CF911F910F91FF90EF9000
:1027A400DF90CF90BF909F908F900C94B211809146
:1027B4000D014ECF80910E0180930C01C6CF809104
:1027C4000C0146CF80910B01BECF80910D01809307
:1027D4000B01BDCF80910E010E949B11B8CF809157
:1027E40008018063F9CF0E94921132CF0E949211A6
:1027F40080930801ACCF80910D018F5FA4CF8091AD
:102804000C018F5FD9CF80910D0181509CCF8091B5
:102814000C018150D1CF0E949211C82F0E949211B5
:10282400D82FCE01019690930A01809309018FCF8E
:102834000E94A9118091080180630E949B118091DC
:1028440008018460809308018EEF9FEF0E942C168C
:10285400C82F8FEF9FEF0E942C16D82FD0930A0118
:10286400C093090181E08093070171CF0E94921106
:10287400809308010E949211C82F0E949211D82FB0
:10288400D0930A01C093090162CF809108018E7F21
:10289400AFCF80910801877FABCF809108018B7FF8
:1028A400A7CF809108018F7BA3CF8091080181601D
:1028B4009FCF8091080188609BCF8091080184603C
:1028C40097CF1092000121502A3008F010C1E22F56
:1028D400F0E0EC5CF84E0C94A1160E942C162091AA
:1028E400090130910A012F5F3F4F30930A01209371
:1028F4000901C82FD0E08DEF810F833008F0FAC0B2
:1029040060910E01133031F060910D01143011F01B
:1029140060910C01CE010E94501680910001811536
:1029240009F415CF133008F4E6CE80EF810F85301B
:1029340008F4E1CE01E0163109F409CF00E007CF35
:102944000E942C162091090130910A012F5F3F4FFC
:1029540030930A012093090190910D01890FC9CF89
:102964000E942C162091090130910A012F5F3F4FDC
:1029740030930A012093090190910C01EFCF0E943A
:102984002C16C82F8091090190910A0101960E948A
:102994002C162091090130910A012E5F3F4F30938C
:1029A4000A0120930901D82FA6CF0E942C16C82F04
:1029B4008091090190910A0101960E942C162091A0
:1029C400090130910A012E5F3F4F30930A01209391
:1029D4000901982F8C2F20910D01EC01C20FD11DFC
:1029E4008C279D278115914008F485CF81E0809341
:1029F400000181CF0E942C16C82F8091090190916B
:102A04000A0101960E942C162091090130910A01B5
:102A14002E5F3F4F30930A0120930901982F8C2F8A
:102A240020910C01EC01C20FD11D8C279D2781152B
:102A34009140DACF0E942C162091090130910A01AD
:102A44002F5F3F4F30930A012093090190910D01AC
:102A5400D82FD90F8D2F90E00E942C16C82FDF5F3E
:102A64008D2F90E00E942C169ECF0E942C16D82FFA
:102A74008091090190910A01019690930A01809333
:102A840009018D2F90E00E942C16C82FDF5F8D2F37
:102A940090E00E942C16982F8C2F20910C01EC01B1
:102AA400C20FD11D8C279D27811591409DCF0E9477
:102AB4002C16882E8091090190910A0101960E949A
:102AC4002C162091090130910A012E5F3F4F30935B
:102AD4000A0120930901982EC4010E942C16C82FC4
:102AE400C401019688249401282BC901BBCFC0E0FE
:102AF400D0E001CFCE010E942C161D3208F00DCF7C
:102B0400E12FF0E0E25CF84E0C94A11680930D01E5
:102B14000E94EB1102CF80930C01FACF0E94F911AD
:102B2400FCCE0E942112F9CE90910E01892380934C
:102B34000E01EECF90910E01892BF9CF90910E01E9
:102B44008927F5CF9091080120910E0128232111A6
:102B54000AC0926087FF09C0906886FF08C090642D
:102B640090930801DACE9D7FF5CF9F77F6CF9F7BB8
:102B7400F7CF682F80910E010E949312CECE682F5A
:102B840080910D01F9CF682F80910C01F5CFBB2402
:102B9400B394B80E6B2DCE010E9450168B2DB8CF76
:102BA400BB24BA94F6CF21E0AE01682F812F0E9496
:102BB4004A12B3CE8091090190910A0101970E94B3
:102BC400A911D0930A01C0930901A7CE80910201F3
:102BD400811549F08091080182FD05C0109202011F
:102BE4008EEF9FEFD7CDDF91CF911F910F91FF9083
:102BF400EF90DF90CF90BF909F908F900895809139
:102C04000701089581E080930201089581E0809393
:102C1400010108958091090190910A01089580911C
:102C24000E01089580910D01089580910C0108957D
:102C340080910B010895809108010895609103012A
:102C4400709104018091050190910601089584E03A
:102C540091E00895FC01E11584E0F80720F4E15FB8
:102C6400FE4F80810895CF019052029768F4E115D8
:102C7400F04239F48091C00087FB882780F9826094
:102C840008958091C6000895E11580EEF80720F0BC
:102C9400EC5FFC4D849108958FEF08959C012115FC
:102CA40084E0380728F4215F3E4FF90160830895DA
:102CB4002130F0E23F0739F48091C00085FFFCCF5A
:102CC4006093C600089521153043E1F78091C00058
:102CD40085FFFCCFF5CF0C945016F8941092C500E4
:102CE40087E68093C40088E18093C10086E08093E6
:102CF400C20078940E94A6120E94D212FDCF0FEF58
:102D04000DBF08E00EBFE0E0F1E00FE015E020E0C9
:102D140031E0021B130B21F0119201501040E1F736
:102D2400A0E0B1E0C0E0D1E0CA1BDB0B39F0EEE477
:102D3400FDE205900D92C150D040D9F7CECFEE0FF1
:0A2D4400FF1F0590F491E02D0994A3
:102D4E000C9482110C9490110C9490110C9490117F
:102D5E000C9490110C9490110C9490110C94901161
:102D6E000C9490110C9490110C9490110C94901151
:102D7E000C9490110C9490110C9490110C94901141
:102D8E000C9490110C9490110C9490110C94901131
:102D9E000C9490110C9490110C9490110C94901121
:082DAE000C9490110C9490119B
:082DB6000E946F160C94DF1659
:042DBE00F894FFCFB7
:102DC2002A13A513DE13A913A913A913A913A9136F
:102DD200A913A913A913A913A913A913A913A91311
:102DE2002113241327132D133113A91335133B1366
:102DF2003F1369136A137F13821386138A138E1388
:102E02009313A313D913DC13E113E413E713EC13A5
:102E1200F113F513F813A913A913A913A913A913ED
:102E2200A913A913A913A913A913A913FD13011413
:102E320005140914A913A913A913A913A913A913F2
:102E4200A913A913A913A913A913A913A913A913A0
:102E52000D141A143814A91347144B144F14531495
:102E620057145B145F146F14A214B214C114D71454
:102E7200FC141C15371579155915991588158D15DA
:102E82008F148F148F148F148F148F148F148F1428
:102E92008F148F148F148F148F1490159315961509
:102EA2009C15A015A415BB15C115C515C915D215BC
:102EB2008F148F148F148F14D515D515D515D515DC
:102EC2008F148F148F148F148F148F148F148F14E8
:042ED200E315DC1513
:0400000300000004F5
:00000001FF
